:020000040800F2
:1000000000000120350600087D0600087D06000876
:100010007D0600087D0600087D060008000000003F
:10002000000000000000000000000000E1030008E4
:100030007D060008000000001104000855040008B7
:100040007D0600087D0600087D0600087D06000884
:100050007D0600087D0600087D0600087D06000874
:100060007D0600087D0600087D0600087D06000864
:100070007D0600087D0600087D0600087D06000854
:100080007D0600087D0600087D0600087D06000844
:100090007D0600087D0600087D0600087D06000834
:1000A0007D0600087D0600087D0600087D06000824
:1000B0007D0600087D0600087D0600087D06000814
:1000C0007D0600087D0600087D0600087D06000804
:1000D0007D0600087D0600087D0600087D060008F4
:1000E0007D0600087D0600087D0600087D060008E4
:1000F0007D0600087D0600087D0600087D060008D4
:100100007D0600087D0600087D0600087D060008C3
:100110007D0600087D0600087D0600087D060008B3
:100120007D0600087D0600087D0600087D060008A3
:1001300000000000000000000000000000000000BF
:1001400000000000000000000000000000000000AF
:10015000000000000000000000000000000000009F
:10016000000000000000000000000000000000008F
:10017000000000000000000000000000000000007F
:10018000000000000000000000000000000000006F
:10019000000000000000000000000000000000005F
:1001A000000000000000000000000000000000004F
:1001B000000000000000000000000000000000003F
:1001C000000000000000000000000000000000002F
:1001D000000000000000000000000000000000001F
:0401E0005FF8E0F1F3
:1001F0000348044B834202D0034B03B118477047B6
:100200000000002000000020000000000548064912
:10021000091A891001EBD171491002D0034B03B1C7
:100220001847704700000020000000200000000078
:1002300010B5064C237843B9FFF7DAFF044B13B12E
:100240000448AFF300800123237010BD000000209C
:1002500000000000C806000808B5054B1BB10549A1
:100260000548AFF30080BDE80840FFF7CFBF00BFEF
:100270000000000004000020C8060008FEE700009F
:1002800082B00023019300932C4A136843F4803317
:1002900013602A4B1B6803F400330093019B013366
:1002A0000193009B1BB9019BB3F5A06FF1D1234BC8
:1002B0001B6813F4003F06D001230093009B012B21
:1002C00004D002B0704700230093F7E71C4B1A6874
:1002D00042F010021A601A6822F003021A601A68CB
:1002E00042F002021A60A3F580535A685A605A68B5
:1002F0005A605A6842F480625A605A6822F47C124A
:100300005A605A6842F4E8125A601A6842F08072E1
:100310001A600A4B1B6813F0007FFAD0074B5A682B
:1003200022F003025A605A6842F002025A60034BFC
:100330005B6803F00C03082BF9D1C2E70010024000
:100340000020024008B5FFF79BFF08BD08B5104B21
:100350001A6842F001021A6059680E4A0A405A604F
:100360001A6822F0847222F480321A601A6822F429
:1003700080221A605A6822F4FE025A604FF41F026B
:100380009A60FFF7DFFF044B4FF000629A6008BDF0
:10039000001002400000FFF800ED00E043684B60F1
:1003A0009A688A605160996008610368013303604C
:1003B00070470369416882688A60416851605A6881
:1003C000824206D0002202611A68013A1A60186857
:1003D000704782685A60F5E70000000000000000E6
:1003E000074B19680868B0E8F00F80F30988BFF37D
:1003F0006F8F4FF0000080F311884EF00D0E7047A4
:100400001C000020000000000000000000000000B0
:10041000EFF30980BFF36F8F0D4B1A6820E9F00FDF
:1004200010602DE908404FF0BF0080F3118800F004
:10043000BDF84FF0000080F31188BDE8084019684E
:100440000868B0E8F00F80F30988BFF36F8F70473A
:100450001C00002008B54FF0BF0383F31188BFF3E1
:100460006F8FBFF34F8F00F021F818B1034B4FF09F
:1004700080521A60002383F3118808BD04ED00E068
:10048000084B1B681B6823B9074B4FF0FF321A60FB
:100490007047044B1B68DB68DB685A68024B1A60C4
:1004A000704700BF2000002094000020F8B5344BB6
:1004B0001B68002B5DD1334B1E6801361E60AEB148
:1004C000314B1B68B3424AD90027304B1B68DB6AAB
:1004D00003EB83039A002E4B9B58012B00D9012775
:1004E0002C4B1B68002B49D0012747E02A4A116892
:1004F0002A4B186810601960294A13680133136089
:10050000FFF7BEFFDCE70127234B1B681B6843B3E3
:10051000214B1B68DB68DC6863689E4226D3251D7F
:100520002846FFF746FFA36A1BB104F11800FFF746
:1005300040FFE36A1B4A1268934201D9194A1360CB
:1005400003EB83039A00294611481044FFF726FF66
:10055000E26A0E4B1B68DB6A9A42D4D2D4E70027CA
:10056000D2E7094B4FF0FF321A60AEE7064A13603C
:10057000ABE70D4A13680133136000273846F8BD16
:100580008C000020A0000020940000201C0000200F
:1005900028000020A40000202000002024000020CB
:1005A00098000020900000209C0000201C4B1B683D
:1005B0001BB11C4B01221A60704710B4194B00226A
:1005C0001A60194B1B6800E0013B03EB83018A00B2
:1005D00016498A58002AF7D008469A00D418A10074
:1005E00001444C6864684C601A4491000831084426
:1005F00084420CD003EB830291000C4A0A445268F7
:10060000D1680B4A1160084A136010BC70476068DB
:1006100003EB83029100054A0A445060EAE700BFF9
:100620008C000020A4000020900000202800002062
:100630001C000020002103E00B4B5B5843500431A9
:100640000A480B4B42189A42F6D30A4A02E00023AA
:1006500042F8043B084B9A42F9D3FFF777FE00F0CB
:100660000FF8FFF70BFE7047E806000800000020B7
:100670000000002000000020A8000020FEE700008D
:1006800070B500260C4D0D4C641BA410A64209D178
:1006900000F01AF800260A4D0A4C641BA410A6426A
:1006A00005D170BD55F8043B98470136EEE755F883
:1006B000043B98470136F2E7E0060008E006000830
:1006C000E0060008E4060008F8B500BFF8BC08BC66
:1006D0009E467047F8B500BFF8BC08BC9E46704700
:0406E00059020008B3
:0406E40031020008D7
:0400000508000635B4
:00000001FF
